{
  "contractName": "Wallet",
  "abi": [
    {
      "inputs": [
        {
          "internalType": "address[]",
          "name": "_owners",
          "type": "address[]"
        },
        {
          "internalType": "uint256",
          "name": "_limit",
          "type": "uint256"
        }
      ],
      "stateMutability": "nonpayable",
      "type": "constructor"
    },
    {
      "anonymous": false,
      "inputs": [
        {
          "indexed": false,
          "internalType": "uint256",
          "name": "_id",
          "type": "uint256"
        },
        {
          "indexed": false,
          "internalType": "uint256",
          "name": "_approvals",
          "type": "uint256"
        },
        {
          "indexed": false,
          "internalType": "address",
          "name": "_approver",
          "type": "address"
        }
      ],
      "name": "ApprovalReceived",
      "type": "event"
    },
    {
      "anonymous": false,
      "inputs": [
        {
          "indexed": false,
          "internalType": "uint256",
          "name": "_id",
          "type": "uint256"
        }
      ],
      "name": "TransferApproved",
      "type": "event"
    },
    {
      "anonymous": false,
      "inputs": [
        {
          "indexed": false,
          "internalType": "uint256",
          "name": "_id",
          "type": "uint256"
        },
        {
          "indexed": false,
          "internalType": "uint256",
          "name": "_amount",
          "type": "uint256"
        },
        {
          "indexed": false,
          "internalType": "address",
          "name": "_initiator",
          "type": "address"
        },
        {
          "indexed": false,
          "internalType": "address",
          "name": "_receiver",
          "type": "address"
        }
      ],
      "name": "TransferRequestCreated",
      "type": "event"
    },
    {
      "inputs": [
        {
          "internalType": "uint256",
          "name": "",
          "type": "uint256"
        }
      ],
      "name": "owners",
      "outputs": [
        {
          "internalType": "address",
          "name": "",
          "type": "address"
        }
      ],
      "stateMutability": "view",
      "type": "function"
    },
    {
      "inputs": [],
      "name": "deposit",
      "outputs": [],
      "stateMutability": "payable",
      "type": "function"
    },
    {
      "inputs": [
        {
          "internalType": "uint256",
          "name": "_amount",
          "type": "uint256"
        },
        {
          "internalType": "address payable",
          "name": "_receiver",
          "type": "address"
        }
      ],
      "name": "createTransfer",
      "outputs": [],
      "stateMutability": "nonpayable",
      "type": "function"
    },
    {
      "inputs": [
        {
          "internalType": "uint256",
          "name": "_id",
          "type": "uint256"
        }
      ],
      "name": "approve",
      "outputs": [],
      "stateMutability": "nonpayable",
      "type": "function"
    },
    {
      "inputs": [],
      "name": "getTransferRequests",
      "outputs": [
        {
          "components": [
            {
              "internalType": "uint256",
              "name": "amount",
              "type": "uint256"
            },
            {
              "internalType": "address payable",
              "name": "receiver",
              "type": "address"
            },
            {
              "internalType": "uint256",
              "name": "approvals",
              "type": "uint256"
            },
            {
              "internalType": "bool",
              "name": "hasBeenSent",
              "type": "bool"
            },
            {
              "internalType": "uint256",
              "name": "id",
              "type": "uint256"
            }
          ],
          "internalType": "struct Wallet.Transfer[]",
          "name": "",
          "type": "tuple[]"
        }
      ],
      "stateMutability": "view",
      "type": "function"
    }
  ],
  "bytecode": "0x608060405234801562000010575f80fd5b5060405162000f9438038062000f9483398181016040528101906200003691906200031c565b815f90805190602001906200004d9291906200005d565b5080600181905550505062000380565b828054828255905f5260205f20908101928215620000d6579160200282015b82811115620000d5578251825f6101000a81548173ffffffffffffffffffffffffffffffffffffffff021916908373ffffffffffffffffffffffffffffffffffffffff160217905550916020019190600101906200007c565b5b509050620000e59190620000e9565b5090565b5b8082111562000102575f815f905550600101620000ea565b5090565b5f604051905090565b5f80fd5b5f80fd5b5f80fd5b5f601f19601f8301169050919050565b7f4e487b71000000000000000000000000000000000000000000000000000000005f52604160045260245ffd5b62000163826200011b565b810181811067ffffffffffffffff821117156200018557620001846200012b565b5b80604052505050565b5f6200019962000106565b9050620001a7828262000158565b919050565b5f67ffffffffffffffff821115620001c957620001c86200012b565b5b602082029050602081019050919050565b5f80fd5b5f73ffffffffffffffffffffffffffffffffffffffff82169050919050565b5f6200020982620001de565b9050919050565b6200021b81620001fd565b811462000226575f80fd5b50565b5f81519050620002398162000210565b92915050565b5f620002556200024f84620001ac565b6200018e565b905080838252602082019050602084028301858111156200027b576200027a620001da565b5b835b81811015620002a8578062000293888262000229565b8452602084019350506020810190506200027d565b5050509392505050565b5f82601f830112620002c957620002c862000117565b5b8151620002db8482602086016200023f565b91505092915050565b5f819050919050565b620002f881620002e4565b811462000303575f80fd5b50565b5f815190506200031681620002ed565b92915050565b5f80604083850312156200033557620003346200010f565b5b5f83015167ffffffffffffffff81111562000355576200035462000113565b5b6200036385828601620002b2565b9250506020620003768582860162000306565b9150509250929050565b610c06806200038e5f395ff3fe608060405260043610610049575f3560e01c8063025e7c271461004d5780634c12fa4714610089578063a04ef145146100b1578063b759f954146100db578063d0e30db014610103575b5f80fd5b348015610058575f80fd5b50610073600480360381019061006e91906107d2565b61010d565b604051610080919061083c565b60405180910390f35b348015610094575f80fd5b506100af60048036038101906100aa9190610890565b610147565b005b3480156100bc575f80fd5b506100c5610322565b6040516100d29190610a14565b60405180910390f35b3480156100e6575f80fd5b5061010160048036038101906100fc91906107d2565b61040a565b005b61010b610799565b005b5f818154811061011b575f80fd5b905f5260205f20015f915054906101000a900473ffffffffffffffffffffffffffffffffffffffff1681565b5f805b5f805490508110156101db573373ffffffffffffffffffffffffffffffffffffffff165f82815481106101805761017f610a34565b5b905f5260205f20015f9054906101000a900473ffffffffffffffffffffffffffffffffffffffff1673ffffffffffffffffffffffffffffffffffffffff16036101c857600191505b80806101d390610a8e565b91505061014a565b5060011515811515146101ec575f80fd5b7f099c4ec4ecfc26f7c8b27aeee5443f92120fa2c4e91ba6020369ae71a4d442786002805490508433856040516102269493929190610b3f565b60405180910390a160026040518060a001604052808581526020018473ffffffffffffffffffffffffffffffffffffffff1681526020015f81526020015f15158152602001600280549050815250908060018154018082558091505060019003905f5260205f2090600502015f909190919091505f820151815f01556020820151816001015f6101000a81548173ffffffffffffffffffffffffffffffffffffffff021916908373ffffffffffffffffffffffffffffffffffffffff160217905550604082015181600201556060820151816003015f6101000a81548160ff021916908315150217905550608082015181600401555050505050565b60606002805480602002602001604051908101604052809291908181526020015f905b82821015610401578382905f5260205f2090600502016040518060a00160405290815f8201548152602001600182015f9054906101000a900473ffffffffffffffffffffffffffffffffffffffff1673ffffffffffffffffffffffffffffffffffffffff1673ffffffffffffffffffffffffffffffffffffffff16815260200160028201548152602001600382015f9054906101000a900460ff1615151515815260200160048201548152505081526020019060010190610345565b50505050905090565b5f805b5f8054905081101561049e573373ffffffffffffffffffffffffffffffffffffffff165f828154811061044357610442610a34565b5b905f5260205f20015f9054906101000a900473ffffffffffffffffffffffffffffffffffffffff1673ffffffffffffffffffffffffffffffffffffffff160361048b57600191505b808061049690610a8e565b91505061040d565b5060011515811515146104af575f80fd5b5f151560035f3373ffffffffffffffffffffffffffffffffffffffff1673ffffffffffffffffffffffffffffffffffffffff1681526020019081526020015f205f8481526020019081526020015f205f9054906101000a900460ff16151514610516575f80fd5b5f15156002838154811061052d5761052c610a34565b5b905f5260205f2090600502016003015f9054906101000a900460ff16151514610554575f80fd5b600160035f3373ffffffffffffffffffffffffffffffffffffffff1673ffffffffffffffffffffffffffffffffffffffff1681526020019081526020015f205f8481526020019081526020015f205f6101000a81548160ff021916908315150217905550600282815481106105cc576105cb610a34565b5b905f5260205f2090600502016002015f8154809291906105eb90610a8e565b91905055507ffec9d12d15ee8c8b836a58347cb0d4980db38411bcd0b83662cee48fb20b6dee826002848154811061062657610625610a34565b5b905f5260205f209060050201600201543360405161064693929190610b82565b60405180910390a16001546002838154811061066557610664610a34565b5b905f5260205f2090600502016002015410610795576001600283815481106106905761068f610a34565b5b905f5260205f2090600502016003015f6101000a81548160ff021916908315150217905550600282815481106106c9576106c8610a34565b5b905f5260205f2090600502016001015f9054906101000a900473ffffffffffffffffffffffffffffffffffffffff1673ffffffffffffffffffffffffffffffffffffffff166108fc6002848154811061072557610724610a34565b5b905f5260205f2090600502015f015490811502906040515f60405180830381858888f1935050505015801561075c573d5f803e3d5ffd5b507fd9bbf1d8bef570b7e92ef1ba025425fc15915ae01f3d3be144cdc8be05442eb58260405161078c9190610bb7565b60405180910390a15b5050565b565b5f80fd5b5f819050919050565b6107b18161079f565b81146107bb575f80fd5b50565b5f813590506107cc816107a8565b92915050565b5f602082840312156107e7576107e661079b565b5b5f6107f4848285016107be565b91505092915050565b5f73ffffffffffffffffffffffffffffffffffffffff82169050919050565b5f610826826107fd565b9050919050565b6108368161081c565b82525050565b5f60208201905061084f5f83018461082d565b92915050565b5f61085f826107fd565b9050919050565b61086f81610855565b8114610879575f80fd5b50565b5f8135905061088a81610866565b92915050565b5f80604083850312156108a6576108a561079b565b5b5f6108b3858286016107be565b92505060206108c48582860161087c565b9150509250929050565b5f81519050919050565b5f82825260208201905092915050565b5f819050602082019050919050565b6109008161079f565b82525050565b61090f81610855565b82525050565b5f8115159050919050565b61092981610915565b82525050565b60a082015f8201516109435f8501826108f7565b5060208201516109566020850182610906565b50604082015161096960408501826108f7565b50606082015161097c6060850182610920565b50608082015161098f60808501826108f7565b50505050565b5f6109a0838361092f565b60a08301905092915050565b5f602082019050919050565b5f6109c2826108ce565b6109cc81856108d8565b93506109d7836108e8565b805f5b83811015610a075781516109ee8882610995565b97506109f9836109ac565b9250506001810190506109da565b5085935050505092915050565b5f6020820190508181035f830152610a2c81846109b8565b905092915050565b7f4e487b71000000000000000000000000000000000000000000000000000000005f52603260045260245ffd5b7f4e487b71000000000000000000000000000000000000000000000000000000005f52601160045260245ffd5b5f610a988261079f565b91507fffffffffffffffffffffffffffffffffffffffffffffffffffffffffffffffff8203610aca57610ac9610a61565b5b600182019050919050565b610ade8161079f565b82525050565b5f819050919050565b5f610b07610b02610afd846107fd565b610ae4565b6107fd565b9050919050565b5f610b1882610aed565b9050919050565b5f610b2982610b0e565b9050919050565b610b3981610b1f565b82525050565b5f608082019050610b525f830187610ad5565b610b5f6020830186610ad5565b610b6c604083018561082d565b610b796060830184610b30565b95945050505050565b5f606082019050610b955f830186610ad5565b610ba26020830185610ad5565b610baf604083018461082d565b949350505050565b5f602082019050610bca5f830184610ad5565b9291505056fea2646970667358221220137557b1221a2bcd7fc797eca9932422d1861e9e3f2362a51db1be2a1f6c688264736f6c63430008140033",
  "immutableReferences": {},
  "source": "pragma solidity ^0.8.0;\npragma abicoder v2;\n\ncontract Wallet {\n    address[] public owners;\n    uint limit;\n    \n    struct Transfer{\n        uint amount;\n        address payable receiver;\n        uint approvals;\n        bool hasBeenSent;\n        uint id;\n    }\n    \n    event TransferRequestCreated(uint _id, uint _amount, address _initiator, address _receiver);\n    event ApprovalReceived(uint _id, uint _approvals, address _approver);\n    event TransferApproved(uint _id);\n\n    Transfer[] transferRequests;\n    \n    mapping(address => mapping(uint => bool)) approvals;\n    \n    //Should only allow people in the owners list to continue the execution.\n    modifier onlyOwners(){\n        bool owner = false;\n        for(uint i=0; i<owners.length;i++){\n            if(owners[i] == msg.sender){\n                owner = true;\n            }\n        }\n        require(owner == true);\n        _;\n    }\n    //Should initialize the owners list and the limit \n    constructor(address[] memory _owners, uint _limit) {\n        owners = _owners;\n        limit = _limit;\n    }\n    \n    //Empty function\n    function deposit() public payable {}\n    \n    //Create an instance of the Transfer struct and add it to the transferRequests array\n    function createTransfer(uint _amount, address payable _receiver) public onlyOwners {\n        emit TransferRequestCreated(transferRequests.length, _amount, msg.sender, _receiver);\n        transferRequests.push(\n            Transfer(_amount, _receiver, 0, false, transferRequests.length)\n        );\n        \n    }\n    \n    //Set your approval for one of the transfer requests.\n    //Need to update the Transfer object.\n    //Need to update the mapping to record the approval for the msg.sender.\n    //When the amount of approvals for a transfer has reached the limit, this function should send the transfer to the recipient.\n    //An owner should not be able to vote twice.\n    //An owner should not be able to vote on a tranfer request that has already been sent.\n    function approve(uint _id) public onlyOwners {\n        require(approvals[msg.sender][_id] == false);\n        require(transferRequests[_id].hasBeenSent == false);\n        \n        approvals[msg.sender][_id] = true;\n        transferRequests[_id].approvals++;\n        \n        emit ApprovalReceived(_id, transferRequests[_id].approvals, msg.sender);\n        \n        if(transferRequests[_id].approvals >= limit){\n            transferRequests[_id].hasBeenSent = true;\n            transferRequests[_id].receiver.transfer(transferRequests[_id].amount);\n            emit TransferApproved(_id);\n        }\n    }\n    \n    //Should return all transfer requests\n    function getTransferRequests() public view returns (Transfer[] memory){\n        return transferRequests;\n    }\n    \n    \n}",
  "sourcePath": "/home/atabs/Documents/Moralis Solidity/truffle/truffle1/contracts/Wallet.sol",
  "compiler": {
    "name": "solc",
    "version": "0.8.20+commit.a1b79de6.Emscripten.clang"
  },
  "schemaVersion": "3.4.14",
  "updatedAt": "2023-07-04T05:07:42.678Z",
  "devdoc": {
    "kind": "dev",
    "methods": {},
    "version": 1
  },
  "userdoc": {
    "kind": "user",
    "methods": {},
    "version": 1
  }
}